:1020FE0012000E121FBB122508D2AF9002E0E07044
:10210E0002A3E0600AE49002E0F0A3F0121D399001
:10211E0002DEE07002A3E060E29002DCE060DCE44C
:10212E009002DEF0A3F0C2AF1224A8121BFC12190B
:10213E00527F5A121EFA9002C8A3E0FF900003E4E9
:10214E00F0A374C8F0A37401F0A37401F0A374BFDC
:10215E00F07B5A7D01120FBE7B017A0179BF7D5A49
:10216E00E4FF12001E7E007FFA7D007B017A01796A
:0B217E00BF120EC4122508D2AF8080F3
:10167800C6B5407C407F484840F2121AD61212F292
:101688000200908E404F201E804F20180710204FD8
:101698008000C2CA0014A4442434AD6624940444CF
:1016A800A414000008090808090909FD09090B081C
:1016B80008090800A3BA00000000000000000000AC
:1016C80000000000000000003636000000000000A6
:1016D800000000000000B7F900F808FF08F8000251
:1016E8007A4A4A4A7A020200000F00FF080F00FFF8
:1016F80049497F4949FF0000D6B5008060F80704D2
:10170800E4A4A4BFA4A4E4040000010000FF404036
:101718007F4A4A4A4A4A7F404000310004043E005A
:101728000032002432322A263300222A2A2A16348A
:10173800101814123E1035002E2A2A2A1236001CC0
:101748002E2A2A18370202320A06023800162A2AD6
:101758002A163900242A2A3A1C30001C2222221C6C
:101768006D780878087800750878404878407300E4
:1017780058686868002F8060100C020064003048C8
:101788004C7C406900487C400000760818682018A6
:10179800082B08083E0808002D0808080808002E2D
:1017A80000303000000056041C60340C0448447CAF
:1017B80010107C445A4464744C440068447C4808C3
:1017C80078407A0048685848006B007E103048001E
:0E17D8004B007E083462023C001828244200B8
:1024EE00C2B600C2B3D2B575A0FF00C2B400E5A05B
:0A24FE0020E7FB00D2B400D2B622A2
:0924CF00AF06EF2410FFE433FE18
:1024D8001224EEC2B6D2B4C2B3C2B500008FA000B7
:0624E80000D2B5C2B622CD
:10248100F583E5822CF582E43583F583E493FF7EC1
:01249100004A
:102492001224EEC2B6D2B4D2B3C2B500008FA000ED
:0624A20000D2B5C2B62213
:10253B00E4FF1224EEC2B600D2B5D2B300C2B4008F
:07254B00AFA0D2B400D2B62C
:012552002266
:10234D00C2B7E4FF0FEFB464FBD2B77FE27E001299
:10235D0024D8E4FF0FEFB464FB7FAF7E001224D8C6
:10236D00E4FF0FEFB464FB7FC87E001224D87F2FEB
:10237D001224D8E4FF0FEFB464FB7F257E001224F6
:0B238D00D87F811224D87F250224D8BD
:1024A800E4FDED24B01224D47F107E001224D8E479
:1024B800FF1224D8E4FCE4FFFE1224920CECB48052
:0624C800F50DEDB408DC87
:0124CE0022EB
:0A1E2900900318EDF0900317EFF09E
:101E3300D3940740037F0022900318E0D39480409B
:101E4300037F0022900317E024B0F0120D8070038B
:101E5300021EF7900317E0FF7E001224D8A3E0FFD1
:101E6300C4540FFEA3F0EF540FA3F0EE1224D2E0FC
:101E7300FF7E001224D8E4FD120D80FFED75F022E1
:101E8300A42478F582E43416F583E4936F705590B7
:101E93000001120D99FFED75F022A42479F582E477
:101EA3003416F583E4936F703BFCEC641070189068
:101EB3000317E024011224D4900319E01224D2A3BF
:101EC300E0FF7E001224D8ED75F022A4247AF58277
:101ED300E434161224810CECB420CF900318E024D0
:101EE30010F080060DED6432708E740229F9E43A25
:061EF300FA021E4E7F0101
:011EF90022C6
:052212009001BCEFF09B
:10221700EDD3940740037F00229001BCE0D3948064
:1022270040037F002274B02DFDFF7E001224D8905A
:1022370001BCE0FFC4540FFEEF540FFD1224CFAFD3
:10224700057E001224D8120D806045E4FD120D8032
:10225700FFED75F007A42422F582E43417F583E433
:10226700936F701EFCED75F007A42423F582E43408
:10227700171224810CECB406EC9001BCE02406F0A4
:1022870080050DEDB432C6740129F9E43AFA80B637
:022297007F01C5
:012299002222
:0E1AB4009001A9EFF0A3EDF0A3EAF0A3EBF090
:101AC200C3EA64809480501F9001ABE0FEA3E0FF64
:101AD2007CFF7DFF120DC69001ABEEF0A3EFF090FC
:101AE20001AF742DF080069001AF742BF09001AB22
:101AF200E0FEA3E0FFEE3395E0FDFC7BA07A867961
:101B02000178001223DFAC00AD01AE02AF03E47B2B
:101B1200107A27F9F81223DFEF24309001B0F09009
:101B220001ABE0FAA3E0FB7C277D10FFAE02120EB0
:101B32002D7E037FE8CFCDCFCECCCE120E2DEF245B
:101B4200309001B1F07C037DE8AF03AE02120E2D9E
:101B52007E007F64CFCDCFCECCCE120E2DEF2430BF
:101B6200A3F09001ABA3E07C007D64FFAE02120EF5
:101B72002D7E007F0ACFCDCFCECCCE120E2DEF24FC
:101B8200309001B3F07C007D0AAF03AE02120E2D3D
:101B9200ED2430A3F0E4A3F0C39001ADE06480949F
:101BA2008050289001AFE0FF9001ADE0FAA3E0FB86
:101BB20024B4F58274013AF583EFF09001A9E0FFB5
:101BC200A3E0FD74B42BF9740180279001ADE0FA13
:101BD200A3E0FBD39400EA64809480401C9001A9A6
:101BE200E0FFA3E0FD74069BFBE49AFA74AF2BF9C5
:091BF20074013AFA7B011222127F
:011BFB0022C7
:0812F4009001A9EFF0A3EDF059
:1012FC00E4FFFEFDFCA3E0F8A3E0F9A3E0FAA3E011
:10130C00FB120B529001B15023742DF09001ABE005
:10131C00FCA3E0FDA3E0FEA3E0FFE4FBFA798078F8
:10132C00BF1209AC9001AB120E878003742BF090A6
:10133C0001ABE0FCA3E0FDA3E0FEA3E0FF7BBD7AE4
:10134C0037798678351208BB9001AB120E87E4FF13
:10135C00FE7DC87C429001ABE0F8A3E0F9A3E0FA73
:10136C00A3E0FB1209AC120C099001BAEEF0A3EF4A
:10137C00F09001BAE0FEA3E0FFE4FCFD7B407A4272
:10138C00790FF81223DFAC00AD01AE02AF037BA0E6
:10139C007A86790178001223DFEF24309001B2F0C5
:1013AC009001BAE0FEA3E0FFE4FCFD7BA07A867915
:1013BC0001F81223DFAC00AD01AE02AF03E47B10E9
:1013CC007A27F9F81223DFEF24309001B3F0900163
:1013DC00BAE0FAA3E0FB7C277D10FFAE02120DD819
:1013EC007E037FE8CFCDCFCECCCE120DD8EF2430FC
:1013FC009001B4F07C037DE8AF03AE02120DD87EF1
:10140C00007F64CFCDCFCECCCE120DD8EF2430A33D
:10141C00F0A3742EF09001BAA3E07C007D64FFAEC3
:10142C0002120DD87E007F0ACFCDCFCECCCE120DBE
:10143C00D8EF24309001B7F07C007D0AAF03AE02E8
:10144C00120DD8ED2430A3F0E4A3F0C39001AFE06B
:10145C006480948050289001B1E0FF9001AFE0FAD5
:10146C00A3E0FB24B5F58274013AF583EFF090010B
:10147C00A9E0FFA3E0FD74B52BF97401802790015E
:10148C00AFE0FAA3E0FBD39400EA64809480401CA4
:10149C009001A9E0FFA3E0FD74059BFBE49AFA74AC
:0C14AC00B12BF974013AFA7B01122212F4
:0114B8002211
:0D218900900313FFA3E0FE900310E02EFD75
:02219600AC0794
:10219800EDD3944040037F0022ECD3948040037F2A
:1021A8000022ED131313541F24B0FF7E001224D80D
:1021B800ECC4540FFEEC540FFBEE1224D2EBFF7E5E
:1021C800001224D812253BAA0712253BAA07ED5472
:1021D80007FF7401A807088002C333D8FCF9AF05CC
:1021E800EF131313541F24B0FF7E001224D8ECC43D
:1021F800540FFEEC540FFB1224CFAF037E001224C1
:09220800D8EA49FF1224927F017B
:0122110022AA
:0214B900A90781
:1014BB00E4900011F0A3F0A3F0A3F0EBC39FFEE4C4
:1014CB009400A3F0A3CEF0EDFF90000FE0C39FFEBE
:1014DB00E49400900017F0A3CEF0AF0190001FE44E
:1014EB00F0A3EFF0AF05A3E4F0A3EFF0900015E04D
:1014FB00FEA3E0FFD39400EE64809480400A90003A
:10150B001BE4F0A304F08021EF4E700890001BF059
:10151B00A3F0801574FF90001BF0A3F0C3E49FFFB2
:10152B00E49E900015F0A3EFF0900017E0FEA3E00F
:10153B00FFD39400EE64809480400A90001DE4F089
:10154B00A304F08021EF4E700890001DF0A3F080F3
:10155B001574FF90001DF0A3F0C3E49FFFE49E9071
:10156B000017F0A3EFF0900017E0FEA3E0FF900050
:10157B0015E0FCA3E0FDD39FEE6480F8EC6480984B
:10158B009000194007ECF0A3EDF08005EEF0A3EF0F
:10159B00F0E4900010F090001AE02401FF90001985
:1015AB00E03400FE900010E0D39FEE6480F874806E
:1015BB0098400302167790001FA3E0FFA3A3E0FD62
:1015CB00122196900015E0FEA3E0FF900012E02F91
:1015DB00F0900011E03EF0900017E0FEA3E0FF90CA
:1015EB000014E02FF0900013E03EF0900019E0FEA5
:1015FB00A3E0FF900011E0FCA3E0FDD39FEE64801D
:10160B00F8EC6480984020ED9FFFEC9E900011F069
:10161B00A3EFF090001BE0FEA3E0FF900020E02F73
:10162B00F090001FE03EF0900019E0FEA3E0FF9069
:10163B000013E0FCA3E0FDD39FEE6480F8EC648024
:10164B00984020ED9FFFEC9E900013F0A3EFF090DD
:10165B00001DE0FEA3E0FF900022E02FF0900021A0
:0C166B00E03EF0900010E004F00215A139
:011677002250
:10229A0090031CEDF090031BEFF090031DEBF09000
:1022AA00031CE0FD90000FF01214B990031BE0FB31
:1022BA00FFA3E0FD90031EE090000FF01214B99006
:1022CA00031BE0FF90031EE0FD90031DE0FB90005E
:1022DA000FEDF01214B990031DE0FBFF90031CE010
:0C22EA00FD90031EE090000FF00214B9FC
:0817E60090030FEFF0A3EDF0FA
:1017EE00E4A3F0A3F0EBFF7E00A3EEF0A3EFF02551
:1017FE00E0FFEE33FEC374039F900316F0E49E9059
:10180E000315F0900313E0FCA3E0FD900311E0FE3E
:10181E00A3E0FFD39DEC6480F8EE64809840030251
:10182E00195190030FE02FFFAE05A3E0C39EFD12EA
:10183E002196900313A3E0FF90030FE02FFF900378
:10184E0011A3E0FE900310E0C39EFD1221969003BB
:10185E0013A3E0FF90030FE02F90031112218CA32E
:10186E00A3E0FF90030FE02F122189A3A3E0FF90C6
:10187E00030FE0C39F122189900313A3E0FF90038F
:10188E000FE0C39FFF90031112218DA3A3E0FF90E1
:10189E00030FE0C39FFF900313A3E0FE900310E03D
:1018AE00C39EFD122196900313A3E0FF90030FE059
:1018BE00C39FFF900311A3E0FE900310E0C39EFDB3
:1018CE00122196900312E004F07006900311E004CA
:1018DE00F0C3900315E0648094805025900311E0CE
:1018EE00FEA3E07802C333CE33CED8F92406FFE44C
:1018FE003EFE900316E02FF0900315E03EF0021826
:10190E0011900313E0FEA3E0FFC3900312E09FFFCC
:10191E00900311E09EFEEF7802C333CE33CED8F99A
:10192E00240AFFE43EFE900316E02FF0900315E02C
:10193E003EF0900314E024FFF0900313E034FFF028
:03194E000218116B
:011951002273
:102423006D560056004B487A00487A0075732F6446
:102433006976006D732F64697600762F6469760080
:102443006D762F6469760000000000000000FF0035
:03245300FF00FF88
:0D000E0012234D1224A87F017E000225223E
:051EFA00900000EFF074
:101EFF00E4A3F0A3F0A3F0A3F090000F743EF0E47E
:101F0F00FB7D02FF1214B9900000E0FBFF90000F61
:101F1F00743EF07D021214B99000027402F090002A
:101F2F0002E0D3943E502EE0FD90000FF07B027F35
:101F3F00011214B9900000E0FE24FEFF900002E0B1
:101F4F00FDEE14FB90000FEDF01214B9900002E0BB
:101F5F002406F080C9E4900002F0900000E0FE90AB
:101F6F000002E0FFC39E500E7D20122196900002CA
:101F7F00E02409F080E49000027402F0900002E087
:101F8F00D3943E5026900000E0FCE4120BD5E4FB06
:101F9F00FAF97840120AB5120C09900002E0FD120E
:0B1FAF002196900002E02403F080D196
:011FBA002204
:0A0FBE00900000EFF0900002EBF04D
:100FC800ED70030211651460030212F390000874B7
:100FD80005F0900002E0FFC3900004E09FFF90003E
:100FE80003E09400FE900008E0D39FE49E400302D3
:100FF80012F3E0FF24FFFDE434FFFC900005E0FB62
:10100800A3E0FAA3E0F98D828C83120D99FE8F82FA
:10101800758300120D99FFC39E50030210D09000F3
:1010280000E0FE24F6FDEFC39D50030210D09000AF
:1010380005A3A3A3E0F582758300120D99FDEE24A4
:101048000AFFE433FED3ED9FEE6480F87480985075
:10105800779000097401F0900002E0FF900009E029
:10106800C39F40030212F3E0FF900008E02FFFE463
:1010780033FEEF24FFFDEE34FFFC900005E0FBA3F8
:10108800E0FAA3E0F98D828C83120D99FDC374FFF9
:101098009D1313543F90000AF08F828E83120D998E
:1010A800FFC374FF9F1313543F90000BF0FE900092
:1010B80009E0FB14FFA3E0FD90000FEEF01214B955
:1010C800900009E004F0808F900002E0FFC39000D8
:1010D80004E09FFF900003E09400CF24FFCF34FF8B
:1010E800FE900008E06F7001EE7069A304F09000B4
:1010F80002E0FF900009E0FEC39F40030212F3EEF6
:1011080024FFFDE434FFFC900005E0FBA3E0FAA314
:10111800E0F98D828C83120D99FFC374FF9F13131E
:10112800543F90000AF0FD8E82758300120D99FFDE
:10113800C374FF9F1313543F90000BF0FE900009F7
:10114800E0FB14FF90000FEEF01214B9900009E0D4
:1011580004F0809A900008E004F0020FDA9000088A
:101168007405F0900002E0FFC3900004E09FFF9038
:101178000003E09400FE900008E0D39FE49E400343
:101188000212F3E0FF24FFFDE434FFFC900005E0C9
:10119800FBA3E0FAA3E0F98D828C83120D99FE8FF0
:1011A80082758300120D99FFD39E4003021261904D
:1011B8000000E0FE24F6FDEFC39D5003021261908B
:1011C8000005A3A3A3E0F582758300120D99FDEE37
:1011D800240AFFE433FED3ED9FEE6480F874809810
:1011E80050779000097401F0900002E0FF90000928
:1011F800E0C39F40030212F3E0FF900008E02FFFD6
:10120800E433FEEF24FFFDEE34FFFC900005E0FB25
:10121800A3E0FAA3E0F98D828C83120D99FDC374C3
:10122800FF9D1313543F90000AF08F828E83120D96
:1012380099FFC374FF9F1313543F90000BF0FE9067
:101248000009E0FB14FFA3E0FD90000FEEF012147C
:10125800B9900009E004F0808F900002E0FFC3908D
:101268000004E09FFF900003E09400CF24FFCF34F8
:10127800FFFE900008E06F7001EE7066A304F09026
:101288000002E0FF900009E0FEC39F505EEE24FFDD
:10129800FDE434FFFC900005E0FBA3E0FAA3E0F9CD
:1012A8008D828C83120D99FFC374FF9F1313543FD3
:1012B80090000AF0FD8E82758300120D99FFC374A9
:1012C800FF9F1313543F90000BF0FE900009E0FBC2
:1012D80014FF90000FEEF01214B9900009E004F02A
:0B12E800809D900008E004F002116BF4
:0112F30022D8
:10001E00900000EFF0A3EDF0A3EBF0A3EAF0A3E95C
:01002E00F0E1
:10002F00E4900197F0A3F0A3120E93000000007864
:10003F009D7C017D017BFF7A24794A7E007F061229
:10004F000D5A78A37C017D017BFF7A2479507E00C5
:10005F007F06120D5A900000E0900005F09000010D
:10006F00E075F00384FF900005E0FEC39F5066909B
:10007F000002E0FBA3E0FAA3E0F98E827583001281
:10008F000D99FF7E00C390019EE09F7480F8900150
:10009F009DE06480985005EEF0A3EFF0D39001A49B
:1000AF00E09FEE6480F89001A3E0648098401E907A
:1000BF000002E0FBA3E0FAA3E0F9A3E0F582758369
:1000CF0000120D99FF9001A3E4F0A3EFF09000054B
:1000DF00E004F08088900001E075F0038490000543
:1000EF00F0900001E075F002A4FFAEF07C007D03FC
:1000FF00120DD8900005E0FEC39F5067900002E0FC
:10010F00FBA3E0FAA3E0F98E82758300120D99FF2D
:10011F007E00C39001A0E09F7480F890019FE0647F
:10012F0080985005EEF0A3EFF0D39001A6E09FEE7C
:10013F006480F89001A5E0648098401E900002E072
:10014F00FBA3E0FAA3E0F9A3E0F582758300120D9B
:10015F0099FF9001A5E4F0A3EFF0900005E004F003
:10016F000200F0900001E075F002A4FFAEF07C00F9
:10017F007D03120DD8900005EFF0900001E0FF9085
:10018F000005E0FEC39F5066900002E0FBA3E0FA7B
:10019F00A3E0F98E82758300120D99FF7E00C39044
:1001AF0001A2E09F7480F89001A1E064809850054F
:1001BF00EEF0A3EFF0D39001A8E09FEE6480F890EB
:1001CF0001A7E0648098401E900002E0FBA3E0FAD4
:1001DF00A3E0F9A3E0F582758300120D99FF90015A
:1001EF00A7E4F0A3EFF0900005E004F0808C9000FE
:1001FF00057401F0900005E0FF25E0249BF582E4F3
:10020F003401F583E0FCA3E0FDEF25E0249DF582AA
:10021F00E43401F583E0FEA3E0FFD39DEC6480F8A6
:10022F00EE648098403E900005E025E0249BF58227
:10023F00E43401F583A3E0FD900006F0900005E0A3
:10024F00FC25E0249BF582E43401F583EEF0A3EF67
:10025F00F0EDFFEC25E0249DF582E43401F583E415
:10026F00F0A3EFF0900005E0FF25E024A1F582E474
:10027F003401F583E0FCA3E0FDEF25E024A3F58234
:10028F00E43401F583E0FEA3E0D39DEC6480F8EE47
:10029F006480984040900005AE05A3EEF0EF25E096
:1002AF00249DF582E43401F583E0FCA3E0FD90008A
:1002BF0005E025E024A1F582E43401F583ECF0A3F9
:1002CF00EDF0EEFDEF25E024A3F582E43401F58394
:1002DF00E4F0A3EDF0900005E004F0E064036003A8
:1002EF000202039001A5E0FEA3E0FFC39001A0E08E
:1002FF009FFD90019FE09EFC120BD0E4FBFA797FEB
:10030F007843120AB5E4FBFA792078411209AC90D0
:10031F0002CEE0F8A3E0F9A3E0FAA3E0FB120AB5DE
:10032F009002CA120E87E4FFFEFDFC9002CAE0F8AD
:10033F00A3E0F9A3E0FAA3E0FB120B52500A9002DC
:10034F00CA120E9300000000900000E00490000518
:10035F00F0900001E0FF900005E0FEC39F40030214
:10036F000462EE2401FFE433FE900002E0FBA3E001
:10037F00FAA3E0F98F828E83120D99FCE4120BD54C
:10038F00C004C005C006C0079001A5E0FEA3E0FFB2
:10039F009001A0E02FFD90019FE03EFC120BD0E4F6
:1003AF00FBFAF97840120AB5A804A905AA06AB070B
:1003BF00D007D006D005D004120B526005400302BF
:1003CF0004599001A5E0FEA3E0FF9001A0E02FFDEE
:1003DF0090019FE03EFC120BD0E4FBFAF97840123B
:1003EF000AB5C004C005C006C007900002E0FBA319
:1003FF00E0FAA3E0F9A3E0F582758300120D99FCF2
:10040F00E4120BD5A804A905AA06AB07D007D0069E
:10041F00D005D004120B526002502F900005E0FD62
:10042F00900198E025E0FF900197E033FE74072FCD
:10043F00F58274003EF583E4F0A3EDF0900198E0AF
:10044F0004F07006900197E004F0900005E004F0CE
:10045F00020360900198E024FFF0900197E034FFD1
:10046F00F09002E2E0FEA3E0FFEE60030206E6EF8B
:10047F0014607C14700302055E1470030205BE1431
:10048F00700302061E14700302067D24056003022A
:10049F0006E6900198E025E0FF900197E033FE74A7
:1004AF00072FF58274003EF583E0FEA3E0FF900076
:1004BF0007E0FCA3E0FDC3EF9DFDEE9CFCE4120BF7
:1004CF00D0C004C005C006C007900197E0FCA3E0B0
:1004DF00FDE4120BD0A804A905AA06AB07D007D0DC
:1004EF0006D005D004120AB5E4FBFA7920805B90A0
:1004FF000198E025E0FF900197E033FE74072FF598
:10050F008274003EF583E0FEA3E0FF900007E0FC5D
:10051F00A3E0FDC3EF9DFDEE9CFCE4120BD0C004E5
:10052F00C005C006C007900197E0FCA3E0FDE412F0
:10053F000BD0A804A905AA06AB07D007D006D00593
:10054F00D004120AB5E4FBFA79A078410206DA90DA
:10055F000198E025E0FF900197E033FE74072FF537
:10056F008274003EF583E0FEA3E0FF900007E0FCFD
:10057F00A3E0FDC3EF9DFDEE9CFCE4120BD0C00485
:10058F00C005C006C007900197E0FCA3E0FDE41290
:10059F000BD0A804A905AA06AB07D007D006D00533
:1005AF00D004120AB5E4FBFA794878420206DA90D1
:1005BF000198E025E0FF900197E033FE74072FF5D7
:1005CF008274003EF583E0FEA3E0FF900007E0FC9D
:1005DF00A3E0FDC3EF9DFDEE9CFCE4120BD0C00425
:1005EF00C005C006C007900197E0FCA3E0FDE41230
:1005FF000BD0A804A905AA06AB07D007D006D005D3
:10060F00D004120AB5E4FBFA79C878420206DA90F0
:10061F000198E025E0FF900197E033FE74072FF576
:10062F008274003EF583E0FEA3E0FF900007E0FC3C
:10063F00A3E0FDC3EF9DFDEE9CFCE4120BD0C004C4
:10064F00C005C006C007900197E0FCA3E0FDE412CF
:10065F000BD0A804A905AA06AB07D007D006D00572
:10066F00D004120AB5E4FBFA79487843805D900113
:10067F0098E025E0FF900197E033FE74072FF58295
:10068F0074003EF583E0FEA3E0FF900007E0FCA3BB
:10069F00E0FDC3EF9DFDEE9CFCE4120BD0C004C047
:1006AF0005C006C007900197E0FCA3E0FDE4120B24
:1006BF00D0A804A905AA06AB07D007D006D005D04D
:1006CF0004120AB5E4FBFA79FA78431209AC120C5A
:1006DF0009900199120E87900199E0FCA3E0FDA308
:1006EF00E0FEA3E0FFEC120BCBA804A905AA06AB12
:1006FF00077F007E247D747C49120AB5120C099085
:10070F0002D4120E87E4FFFE7D807C3F9002CAE088
:10071F00F8A3E0F9A3E0FAA3E0FB120B52400302A7
:10072F0007BBE4FFFE7D7A7C449002CAE0F8A3E0A9
:10073F00F9A3E0FAA3E0FB1209ACE4FBFA79C8785D
:10074F0042120B52602B4029E4FFFE7D7A7C4490CD
:10075F0002CAE0F8A3E0F9A3E0FAA3E0FB1209ACA8
:10076F00120C09AB07AA069001ADE4F0A374028046
:10077F0027E4FFFE7D7A7C449002CAE0F8A3E0F9FB
:10078F00A3E0FAA3E0FB1209AC120C09AB07AA060F
:10079F009001ADE4F0A37403F0E4FD7F5F121AB48F
:1007AF007BFF7A2479237D017F648054E4FFFE7DF3
:1007BF00207C419002CAE0F8A3E0F9A3E0FAA3E09D
:1007CF00FB120B529002CAE0FCA3E0FDA3E0FEA3D4
:1007DF00E0FF9001AB400D120E879001AFE4F0A344
:1007EF007402800A120E879001AFE4F0A304F0E4C4
:1007FF00FD7F5F1212F47BFF7A2479267D017F69DA
:10080F00122212E47FE87E03FDFC9002D4E0F8A3ED
:10081F00E0F9A3E0FAA3E0FBD3120E714039900286
:10082F00D4E0FCA3E0FDA3E0FEA3E0FFEC120BCBB2
:10083F00E4FBFA797A7844120AB59001AB120E876D
:10084F009001AFE4F0A304F07D047F5F1212F47BFC
:10085F00FF7A2479288046E47F64FEFDFC9002D461
:10086F00E0F8A3E0F9A3E0FAA3E0FBC3120E715086
:10087F000A9001ADE4F0A3740280149002D4A3A3F4
:10088F00E0FEA3E0FBAA069001ADE4F0A37403F031
:10089F007D047F5F121AB47BFF7A24792C7D057F4C
:0408AF00641222129B
:0108B3002222
:101D39002093239002C9E004F070069002C8E004E1
:101D4900F0D39002C9E094FE9002C8E094004006E6
:101D5900E4F0A374FEF02094209002C9E024FFF07F
:101D69009002C8E034FFF0D3A3E094019002C8E0E8
:101D790094005005E4F0A304F09002C8E0FEA3E04B
:101D8900FFC374FF9FFFE49EFEEF7802CEC313CE1C
:101D990013D8F9FD9002C8E0FEA3E0FFC3740B9FBE
:101DA900FF74019EFEEF7802CEC313CE13D8F990CB
:101DB900000FF07B5D7F5A1214B99002C8E0FEA3B0
:101DC900E0FFC374FF9FFFE49EFEEF7802CEC313CA
:101DD900CE13D8F9FD9002C8E0FEA3E0FFC374F367
:101DE9009FFFE49EFEEF7802CEC313CE13D8F9907D
:101DF900000FF07B5D7F5A1214B99002C8E0FEA370
:101E0900E0FFC374FF9FFFE49EFEEF7802CEC31389
:101E1900CE13D8F9FD90000FF07B5E7F5A0214B9FA
:101BFC002091259002E3E004F070069002E2E004EC
:101C0C00F0D39002E3E094059002E2E064809480CB
:101C1C004006E4F0A37405F020921A9002E3E0244D
:101C2C00FFF09002E2E034FFF0C3E0648094805057
:101C3C0004E4F0A3F09002E3E025E0FF9002E2E080
:101C4C0033FE74B92FF58274023EF583E0FF9002E7
:101C5C00D8E4F0A3EFF09002E3E025E0FF9002E27D
:101C6C00E033FE74BA2FF58274023EF583E0FF90E8
:101C7C0002DAE4F0A3EFF09002E2E0FEA3E0FFEE64
:101C8C006003021D38EF14602014602C146045149E
:101C9C00605E14607624056003021D389001ADE48B
:101CAC00F0A37403F07B64800B9001ADE4F0A3749B
:101CBC0003F07BC87A00800D9001ADE4F0A37403AF
:101CCC00F07BF47A017D067F64121AB47BFF7A24D0
:101CDC00792F80519001ADE4F0A37402F07B017A6E
:101CEC00007D067F64121AB47BFF7A247936803526
:101CFC009001ADE4F0A37402F0FB7A007D067F64E2
:101D0C00121AB47BFF7A247936801A9001ADE4F074
:101D1C00A37402F07B057A007D067F64121AB47BF3
:0D1D2C00FF7A2479367D077F5B1222122298
:101952002096259002D3E004F070069002D2E004B3
:10196200F0D39002D3E094059002D2E06480948098
:101972004006E4F0A37405F020951A9002D3E02407
:10198200FFF09002D2E034FFF0C3E0648094805014
:1019920004E4F0A3F09002D2E0FEA3E07802C333A5
:1019A200CE33CED8F924E4F58274023EF583E0FC0E
:1019B200A3E0FDA3E0FEA3E0FF9002CE120E87900B
:1019C20002D2E0FEA3E0FFEE6003021AB3EF14605E
:1019D2003F14605C146079147003021A721470036D
:1019E200021A9224056003021AB39001AB120E93FD
:1019F2003F8000009001AFE4F0A304F07D027F5F1E
:101A02001212F47BFF7A24793D7D037F5F021AB0C4
:101A12009001ADE4F0A37403F07BF47A017D027FC0
:101A22005F121AB47BFF7A2479437D037F5B807E49
:101A32009001ADE4F0A37403F07BC87A007D027FCD
:101A42005F121AB47BFF7A2479437D037F5B805E49
:101A52009001ADE4F0A37403F07B647A007D027F11
:101A62005F121AB47BFF7A2479437D037F5B803E49
:101A72009001ADE4F0A37403F07B327A007D027F23
:101A82005F121AB47BFF7A2479437D037F5B801E49
:101A92009001ADE4F0A37403F07B147A007D027F21
:101AA2005F121AB47BFF7A2479437D037F5B122293
:021AB2001222FE
:10252200D3EF9400EE9400400F7D267C82DCFEDD2A
:08253200FAEF1F70EB1E80E8B8
:01253A00227E
:102456004C02B9FFF9FFEFFFD1FF9FFF3BFE0D587E
:1024660002E43F8000003FFEB85240B51EB841224C
:0A247600147B418D999A424000004A
:101FBB00E4F58EF589438901438910758D3C758B4A
:101FCB00AFD28ED2ABC28F9002E2F0A3F0E025E04D
:101FDB00FF9002E2E033FE74B92FF58274023EF5F6
:101FEB0083E0FF9002D8E4F0A3EFF09002E3E0254A
:101FFB00E0FF9002E2E033FE74BA2FF58274023EEA
:10200B00F583E0FF9002DAE4F0A3EFF09002C8E46E
:10201B00F0A3747FF0E49002C7F09002DEF0A3F01F
:10202B009002D2F0A3F09002D2E0FEA3E07802C3BC
:10203B0033CE33CED8F924E4F58274023EF583E037
:10204B00FCA3E0FDA3E0FEA3E0FF9002CE120E87FF
:10205B009002D8A3E0F58CA3A3E0F58AC28DD288B9
:07206B0075B70375B80222EE
:10250800E49002DDF09002DCF09002D8A3E0F58CB4
:0A251800A3A3E0F58AD2A9D28C2219
:03001B0002239825
:08239800C0E0C083C082C0D088
:1023A000758D3C758BAF9001BEE004F07006900116
:1023B000BDE004F09002E0E4F0A304F0C39001BE9D
:1023C000E094149001BDE09400400BE4F0A3F09081
:0623D00002DEF0A304F0A0
:0923D600D0D0D082D083D0E032D7
:03000B000222F6D8
:1022F600C0E0C083C082C0D075D000C0079002D8AD
:10230600A3E0F58CA3A3E0F58AC28DC290C290D259
:102316009030B2FD9002DDE0FF04F074BF2FF5822D
:10232600E43401F583E580F09002DDE0C394C74014
:102336000BC2A9C28CE4F09002DC04F0D007D0D026
:07234600D082D083D0E03209
:1008B400020C75E86480F8E933E83360110460F0F1
:1008C400ED33EC337009E8FCE9FDEAFEEBFF2204AA
:1008D40060DED3EB9FEA9EE99DE8C2E78CF0C2F7A5
:1008E40095F0400CE8CCF8E9CDF9EACEFAEBCFFB71
:1008F400120C4085D0F05804700320D5B3E804707E
:10090400075002B2D5020C7F92D5EC0460F7E4CC18
:10091400C0E0C398F8603B94186008400DD0E0FB39
:10092400020C57E4FBFAC9FC8028E830E406E4C969
:10093400FBE4CAFCE830E305E4C9CACBFCE854078D
:100944006010F8C3E913F9EA13FAEB13FBEC13FC98
:10095400D8F130F52FC3E49CFCEF9BFFEE9AFEED3B
:1009640099FDD0E0FBEF4E4D4C701222DB03020CDC
:100974007CEC2CFCEF33FFEE33FEED33FDED30E782
:10098400EB020C57EF2BFFEE3AFEED39FDD0E0FB06
:1009940050130BBB0003020C7FED13FDEE13FEEFAF
:0809A40013FFEC13FC020C57D9
:1009AC00EC4D6011E8497017ED33EC3304600DE445
:1009BC00FCFFFEFD22E933E8330470F8020C7512DB
:1009CC000C4058046009E4CC2481500628500902DC
:1009DC000C7F284003020C7CC0E0EB4A7044B980C9
:1009EC0006D0E0FB020C6BEF4E701CBD8008EBFFD9
:1009FC00EAFEE9FD80EBE98DF0A4FEE5F0020A9534
:100A0C00E9CDF9EAFEEBFFEF89F0A4FCE5F0CE8925
:100A1C00F0A42EFFE435F0CD89F0A42DFEE435F0E2
:100A2C008067EF4E7005BD80D780C3EF8BF0A4AC10
:100A3C00F0EE8BF0A42CFCE435F0F8EF8AF0A42C4B
:100A4C00E5F038FCE433CB8DF0A42CFCE5F03BF85E
:100A5C00EE8AF0A42CFCE5F038F8E433CF89F0A44E
:100A6C002CFCE5F038CF3400CE89F0A42FFFE5F054
:100A7C003EFEE433C98DF0A42EFEE5F039CD8AF0AC
:100A8C00A42FFFE5F03EFEE43DFD33D0E0FB500724
:100A9C000BBB000F020C7FEC2CFCEF33FFEE33FE94
:060AAC00ED33FD020C57C2
:100AB200020C7FEC5D046005E859047003020C75BA
:100AC200120C40580460F6EC4860F2EC7004FDFE33
:100AD200FF22C860DB2481C85009C3986002500617
:100AE200020C7C9850CAF582E9294B4A7005AB8208
:100AF200020C6B75F0007C1A7880C3EF9BEE9AEDC6
:100B020099400DC3EF9BFFEE9AFEED99FDE842F08E
:100B1200DC23ACF0D0E0FFD0E0FED0E0FDAB8220E1
:100B2200E7101BEB60BAEC2CFCEF33FFEE33FEED6B
:100B320033FD020C57E803F830E705C0F075F0000A
:100B4200EF2FFFEE33FEED33FD40B830E7C280AA4F
:100B520074F8CC6480CCC86480C8F58204604FC34A
:100B6200EB9FF5F0EA9E42F0E99D42F0E89C45F0E9
:100B7200603C501DE5825FFFE582D313CB5BCBF473
:100B82002B5582FB50280ABA002409B9002008809C
:100B92001DE5825BFBE582D313CF5FCFF4C3132F36
:100BA2005582FF50090EBE00050DBD00010CC3EBBE
:100BB2009FF5F0EA9E42F0E99D42F0E89C45F06024
:090BC20007CC4820E701B3EC2246
:100BCB0075F020800E75F010800575F0087D007EA5
:100BDB00007F003392D530D503120E63EC334010F7
:100BEB00EF33FFEE33FEED33FDEC33FCD5F0ED22AE
:0E0BFB00E5F0247EA2D513CC92E7CDCEFF22EA
:100C0900EDD2E7CD33EC3392D524814006E4FFFEE3
:100C1900FDFC22FCE4CFCECDCC24E0501174FF8042
:100C2900EDC3CC13CCCD13CDCE13CECF13CF0470DF
:070C3900F030D5DE020E636E
:100C4000E9D2E7C933E833F892D5EDD2E7CD33ECFA
:070C500033FC5002B2D52273
:100C5700EC30E7100FBF000C0EBE00080DBD0004FE
:100C67000BEB6014A2D5EB13FCED92E7FD2274FFAA
:100C7700FCFDFEFF22E480F8A2D574FF13FC7D8003
:030C8700E480EF17
:0300000002207269
:0C207200787FE4F6D8FD7581070220B9E4
:100C8A00E709F608DFFA8046E709F208DFFA803E4C
:100C9A0088828C83E709F0A3DFFA8032E309F60839
:100CAA00DFFA8078E309F208DFFA807088828C83A1
:100CBA00E309F0A3DFFA806489828A83E0A3F60855
:100CCA00DFFA805889828A83E0A3F208DFFA804C2F
:100CDA0080D280FA80C680D4806980F28033801006
:100CEA0080A680EA809A80A880DA80E280CA80336F
:100CFA0089828A83ECFAE493A3C8C582C8CCC583E7
:100D0A00CCF0A3C8C582C8CCC583CCDFE9DEE780B6
:100D1A000D89828A83E493A3F608DFF9ECFAA9F035
:100D2A00EDFB2289828A83ECFAE0A3C8C582C8CC8B
:100D3A00C583CCF0A3C8C582C8CCC583CCDFEADEA4
:100D4A00E880DB89828A83E493A3F208DFF980CC06
:100D5A0088F0EF60010E4E60C388F0ED2402B404FF
:100D6A000050B9F582EB2402B4040050AF232345A6
:060D7A008223900CDA73E5
:100D8000BB010689828A83E0225002E722BBFE0271
:090D9000E32289828A83E49322A4
:100D9900BB010CE58229F582E5833AF583E022500F
:100DA90006E92582F8E622BBFE06E92582F8E22259
:0D0DB900E58229F582E5833AF583E4932273
:100DC600EF8DF0A4A8F0CF8CF0A428CE8DF0A42E41
:020DD600FE22FB
:100DD800BC000BBE0029EF8DF084FFADF022E4CCFF
:100DE800F875F008EF2FFFEE33FEEC33FCEE9DECC8
:100DF800984005FCEE9DFE0FD5F0E9E4CEFD22ED0E
:100E0800F8F5F0EE8420D21CFEADF075F008EF2F57
:100E1800FFED33FD4007985006D5F0F222C398FD48
:050E28000FD5F0EA22E5
:100E2D00C2D5EC30E709B2D5E4C39DFDE49CFCEEE0
:100E3D0030E715B2D5E4C39FFFE49EFE120DD8C373
:100E4D00E49DFDE49CFC8003120DD830D507C3E46E
:060E5D009FFFE49EFE224F
:1023DF00C2D5E830E70FB2D5E4C39BFBE49AFAE429
:1023EF0099F9E498F8EC30E717B2D5122415120FCB
:1023FF002CE4C39BFBE49AFAE499F9E498F8800380
:10240F00120F2C30D50DE4C39FFFE49EFEE49DFD1B
:04241F00E49CFC221B
:0E0E6300C3E49FFFE49EFEE49DFDE49CFC22A0
:100E7100EB9FF5F0EA9E42F0E99D42F0EC6480C8F8
:060E810064809845F02298
:0C0E8700ECF0A3EDF0A3EEF0A3EFF022DE
:100E9300A8828583F0D083D082120EAA120EAA12E2
:100EA3000EAA120EAAE473E493A3C583C5F0C58307
:100EB300C8C582C8F0A3C583C5F0C583C8C582C8A9
:010EC300220C
:100EC400EF4E6012EF60010EEDBB010B89828A8345
:100ED400F0A3DFFCDEFA2289F05007F709DFFCA952
:0C0EE400F022BBFEFCF309DFFCA9F022A9
:10207E000220FEE493A3F8E493A34003F68001F25A
:10208E0008DFF48029E493A3F85407240CC8C33363
:10209E00C4540F4420C8834004F456800146F6DF32
:1020AE00E4800B0102040810204080902456E47E48
:1020BE00019360BCA3FF543F30E509541FFEE49327
:1020CE00A360010ECF54C025E060A840B8E493A3EE
:1020DE00FAE493A3F8E493A3C8C582C8CAC583CA19
:1020EE00F0A3C8C582C8CAC583CADFE9DEE780BED1
:01248000005B
:100EF00075F008758200EF2FFFEE33FECD33CDCCB9
:100F000033CCC58233C5829BED9AEC99E58298403B
:100F10000CF582EE9BFEED9AFDEC99FC0FD5F0D618
:100F2000E4CEFBE4CDFAE4CCF9A88222B800C1B942
:100F30000059BA002DEC8BF084CFCECDFCE5F0CB80
:100F4000F97818EF2FFFEE33FEED33FDEC33FCEBB9
:100F500033FB10D703994004EB99FB0FD8E5E4F974
:100F6000FA227818EF2FFFEE33FEED33FDEC33FC61
:100F7000C933C910D7059BE99A4007EC9BFCE99A55
:100F8000F90FD8E0E4C9FAE4CCFB2275F010EF2F9A
:100F9000FFEE33FEED33FDCC33CCC833C810D7079A
:100FA0009BEC9AE899400AED9BFDEC9AFCE899F8D5
:0E0FB0000FD5F0DAE4CDFBE4CCFAE4C8F92268
:00000001FF
